{
  "contractName": "Secondhand_goods_transaction",
  "abi": [
    {
      "constant": true,
      "inputs": [],
      "name": "seller",
      "outputs": [
        {
          "name": "",
          "type": "address"
        }
      ],
      "payable": false,
      "stateMutability": "view",
      "type": "function"
    },
    {
      "constant": true,
      "inputs": [],
      "name": "value",
      "outputs": [
        {
          "name": "",
          "type": "uint256"
        }
      ],
      "payable": false,
      "stateMutability": "view",
      "type": "function"
    },
    {
      "constant": true,
      "inputs": [],
      "name": "buyer",
      "outputs": [
        {
          "name": "",
          "type": "address"
        }
      ],
      "payable": false,
      "stateMutability": "view",
      "type": "function"
    },
    {
      "constant": true,
      "inputs": [],
      "name": "trader1",
      "outputs": [
        {
          "name": "",
          "type": "address"
        }
      ],
      "payable": false,
      "stateMutability": "view",
      "type": "function"
    },
    {
      "constant": true,
      "inputs": [],
      "name": "trader2",
      "outputs": [
        {
          "name": "",
          "type": "address"
        }
      ],
      "payable": false,
      "stateMutability": "view",
      "type": "function"
    },
    {
      "constant": true,
      "inputs": [
        {
          "name": "",
          "type": "uint256"
        }
      ],
      "name": "secondhand_goods",
      "outputs": [
        {
          "name": "seller",
          "type": "address"
        },
        {
          "name": "name",
          "type": "string"
        },
        {
          "name": "description",
          "type": "string"
        },
        {
          "name": "value",
          "type": "uint256"
        },
        {
          "name": "for_sale",
          "type": "bool"
        },
        {
          "name": "selling",
          "type": "bool"
        },
        {
          "name": "has_sold",
          "type": "bool"
        }
      ],
      "payable": false,
      "stateMutability": "view",
      "type": "function"
    },
    {
      "inputs": [],
      "payable": false,
      "stateMutability": "nonpayable",
      "type": "constructor"
    },
    {
      "constant": false,
      "inputs": [
        {
          "name": "name",
          "type": "string"
        },
        {
          "name": "des",
          "type": "string"
        },
        {
          "name": "val",
          "type": "uint256"
        }
      ],
      "name": "start_a_transaction",
      "outputs": [],
      "payable": false,
      "stateMutability": "nonpayable",
      "type": "function"
    },
    {
      "constant": false,
      "inputs": [
        {
          "name": "index",
          "type": "uint256"
        },
        {
          "name": "val",
          "type": "uint256"
        }
      ],
      "name": "purchase",
      "outputs": [],
      "payable": false,
      "stateMutability": "nonpayable",
      "type": "function"
    },
    {
      "constant": false,
      "inputs": [
        {
          "name": "index",
          "type": "uint256"
        }
      ],
      "name": "confirmReceivedForPurchasing",
      "outputs": [],
      "payable": false,
      "stateMutability": "nonpayable",
      "type": "function"
    },
    {
      "constant": false,
      "inputs": [
        {
          "name": "index",
          "type": "uint256"
        },
        {
          "name": "index1",
          "type": "uint256"
        }
      ],
      "name": "ask_to_exchange",
      "outputs": [
        {
          "name": "",
          "type": "uint256"
        },
        {
          "name": "",
          "type": "uint256"
        }
      ],
      "payable": false,
      "stateMutability": "nonpayable",
      "type": "function"
    },
    {
      "constant": false,
      "inputs": [
        {
          "name": "index",
          "type": "uint256"
        },
        {
          "name": "index1",
          "type": "uint256"
        }
      ],
      "name": "answer_to_exchange",
      "outputs": [],
      "payable": false,
      "stateMutability": "nonpayable",
      "type": "function"
    },
    {
      "constant": false,
      "inputs": [
        {
          "name": "index",
          "type": "uint256"
        },
        {
          "name": "index1",
          "type": "uint256"
        }
      ],
      "name": "exchange_goods",
      "outputs": [],
      "payable": false,
      "stateMutability": "nonpayable",
      "type": "function"
    },
    {
      "constant": true,
      "inputs": [],
      "name": "get_goods_list_len",
      "outputs": [
        {
          "name": "",
          "type": "uint256"
        }
      ],
      "payable": false,
      "stateMutability": "view",
      "type": "function"
    },
    {
      "constant": true,
      "inputs": [
        {
          "name": "index",
          "type": "uint256"
        }
      ],
      "name": "get_good",
      "outputs": [
        {
          "name": "",
          "type": "address"
        },
        {
          "name": "",
          "type": "string"
        },
        {
          "name": "",
          "type": "string"
        },
        {
          "name": "",
          "type": "uint256"
        },
        {
          "name": "",
          "type": "bool"
        },
        {
          "name": "",
          "type": "bool"
        },
        {
          "name": "",
          "type": "bool"
        }
      ],
      "payable": false,
      "stateMutability": "view",
      "type": "function"
    }
  ],
  "bytecode": "0x608060405234801561001057600080fd5b5061186f806100206000396000f3006080604052600436106100d0576000357c0100000000000000000000000000000000000000000000000000000000900463ffffffff16806308551a53146100d55780630929a2211461012c5780630f80bca21461016357806327b7f5c1146101b55780633fa4f245146103225780636d6d53e31461034d57806370876c981461037a5780637150d8ae146103b15780637610647414610408578063a6973f4a1461043f578063ba5a8cda14610496578063cacf0e19146104ed578063eaf0dd7d14610518578063eb09830214610685575b600080fd5b3480156100e157600080fd5b506100ea61073e565b604051808273ffffffffffffffffffffffffffffffffffffffff1673ffffffffffffffffffffffffffffffffffffffff16815260200191505060405180910390f35b34801561013857600080fd5b506101616004803603810190808035906020019092919080359060200190929190505050610763565b005b34801561016f57600080fd5b506101986004803603810190808035906020019092919080359060200190929190505050610a65565b604051808381526020018281526020019250505060405180910390f35b3480156101c157600080fd5b506101e060048036038101908080359060200190929190505050610bd1565b604051808873ffffffffffffffffffffffffffffffffffffffff1673ffffffffffffffffffffffffffffffffffffffff1681526020018060200180602001878152602001861515151581526020018515151515815260200184151515158152602001838103835289818151815260200191508051906020019080838360005b8381101561027a57808201518184015260208101905061025f565b50505050905090810190601f1680156102a75780820380516001836020036101000a031916815260200191505b50838103825288818151815260200191508051906020019080838360005b838110156102e05780820151818401526020810190506102c5565b50505050905090810190601f16801561030d5780820380516001836020036101000a031916815260200191505b50995050505050505050505060405180910390f35b34801561032e57600080fd5b50610337610e59565b6040518082815260200191505060405180910390f35b34801561035957600080fd5b5061037860048036038101908080359060200190929190505050610e5f565b005b34801561038657600080fd5b506103af6004803603810190808035906020019092919080359060200190929190505050610ed4565b005b3480156103bd57600080fd5b506103c6611223565b604051808273ffffffffffffffffffffffffffffffffffffffff1673ffffffffffffffffffffffffffffffffffffffff16815260200191505060405180910390f35b34801561041457600080fd5b5061043d6004803603810190808035906020019092919080359060200190929190505050611249565b005b34801561044b57600080fd5b506104546113a9565b604051808273ffffffffffffffffffffffffffffffffffffffff1673ffffffffffffffffffffffffffffffffffffffff16815260200191505060405180910390f35b3480156104a257600080fd5b506104ab6113cf565b604051808273ffffffffffffffffffffffffffffffffffffffff1673ffffffffffffffffffffffffffffffffffffffff16815260200191505060405180910390f35b3480156104f957600080fd5b506105026113f5565b6040518082815260200191505060405180910390f35b34801561052457600080fd5b5061054360048036038101908080359060200190929190505050611402565b604051808873ffffffffffffffffffffffffffffffffffffffff1673ffffffffffffffffffffffffffffffffffffffff1681526020018060200180602001878152602001861515151581526020018515151515815260200184151515158152602001838103835289818151815260200191508051906020019080838360005b838110156105dd5780820151818401526020810190506105c2565b50505050905090810190601f16801561060a5780820380516001836020036101000a031916815260200191505b50838103825288818151815260200191508051906020019080838360005b83811015610643578082015181840152602081019050610628565b50505050905090810190601f1680156106705780820380516001836020036101000a031916815260200191505b50995050505050505050505060405180910390f35b34801561069157600080fd5b5061073c600480360381019080803590602001908201803590602001908080601f0160208091040260200160405190810160405280939291908181526020018383808284378201915050505050509192919290803590602001908201803590602001908080601f0160208091040260200160405190810160405280939291908181526020018383808284378201915050505050509192919290803590602001909291905050506115ca565b005b6000809054906101000a900473ffffffffffffffffffffffffffffffffffffffff1681565b600360009054906101000a900473ffffffffffffffffffffffffffffffffffffffff1673ffffffffffffffffffffffffffffffffffffffff16600260009054906101000a900473ffffffffffffffffffffffffffffffffffffffff1673ffffffffffffffffffffffffffffffffffffffff1614151515610871576040517f08c379a00000000000000000000000000000000000000000000000000000000081526004018080602001828103825260388152602001807f5468652074776f207369646573206f66207472616e73616374696f6e2063616e81526020017f206e6f74206265207468652073616d652070656f706c652e000000000000000081525060400191505060405180910390fd5b6001151560058381548110151561088457fe5b906000526020600020906005020160040160019054906101000a900460ff1615151480156108e35750600115156005828154811015156108c057fe5b906000526020600020906005020160040160019054906101000a900460ff161515145b151561097d576040517f08c379a00000000000000000000000000000000000000000000000000000000081526004018080602001828103825260308152602001807f54726164657220646f206e6f7420726561636820616e2061677265656d656e7481526020017f20666f722065786368616e67696e672e0000000000000000000000000000000081525060400191505060405180910390fd5b600060058381548110151561098e57fe5b906000526020600020906005020160040160016101000a81548160ff02191690831515021790555060016005838154811015156109c757fe5b906000526020600020906005020160040160026101000a81548160ff0219169083151502179055506000600582815481101515610a0057fe5b906000526020600020906005020160040160016101000a81548160ff0219169083151502179055506001600582815481101515610a3957fe5b906000526020600020906005020160040160026101000a81548160ff0219169083151502179055505050565b60008060011515600585815481101515610a7b57fe5b906000526020600020906005020160040160009054906101000a900460ff161515141515610b11576040517f08c379a00000000000000000000000000000000000000000000000000000000081526004018080602001828103825260158152602001807f476f6f64206973206e6f7420666f722073616c652e000000000000000000000081525060200191505060405180910390fd5b6000600584815481101515610b2257fe5b906000526020600020906005020160040160006101000a81548160ff0219169083151502179055506001600584815481101515610b5b57fe5b906000526020600020906005020160040160016101000a81548160ff02191690831515021790555033600260006101000a81548173ffffffffffffffffffffffffffffffffffffffff021916908373ffffffffffffffffffffffffffffffffffffffff1602179055508383915091509250929050565b6000606080600080600080600588815481101515610beb57fe5b906000526020600020906005020160000160009054906101000a900473ffffffffffffffffffffffffffffffffffffffff16600589815481101515610c2c57fe5b906000526020600020906005020160010160058a815481101515610c4c57fe5b906000526020600020906005020160020160058b815481101515610c6c57fe5b90600052602060002090600502016003015460058c815481101515610c8d57fe5b906000526020600020906005020160040160009054906101000a900460ff1660058d815481101515610cbb57fe5b906000526020600020906005020160040160019054906101000a900460ff1660058e815481101515610ce957fe5b906000526020600020906005020160040160029054906101000a900460ff16858054600181600116156101000203166002900480601f016020809104026020016040519081016040528092919081815260200182805460018160011615610100020316600290048015610d9d5780601f10610d7257610100808354040283529160200191610d9d565b820191906000526020600020905b815481529060010190602001808311610d8057829003601f168201915b50505050509550848054600181600116156101000203166002900480601f016020809104026020016040519081016040528092919081815260200182805460018160011615610100020316600290048015610e395780601f10610e0e57610100808354040283529160200191610e39565b820191906000526020600020905b815481529060010190602001808311610e1c57829003601f168201915b505050505094509650965096509650965096509650919395979092949650565b60045481565b6000600582815481101515610e7057fe5b906000526020600020906005020160040160016101000a81548160ff0219169083151502179055506001600582815481101515610ea957fe5b906000526020600020906005020160040160026101000a81548160ff02191690831515021790555050565b600033600160006101000a81548173ffffffffffffffffffffffffffffffffffffffff021916908373ffffffffffffffffffffffffffffffffffffffff160217905550600583815481101515610f2657fe5b906000526020600020906005020160000160009054906101000a900473ffffffffffffffffffffffffffffffffffffffff16905060011515600584815481101515610f6d57fe5b906000526020600020906005020160040160009054906101000a900460ff161515141515611003576040517f08c379a00000000000000000000000000000000000000000000000000000000081526004018080602001828103825260158152602001807f476f6f64206973206e6f7420666f722073616c652e000000000000000000000081525060200191505060405180910390fd5b600160009054906101000a900473ffffffffffffffffffffffffffffffffffffffff1673ffffffffffffffffffffffffffffffffffffffff168173ffffffffffffffffffffffffffffffffffffffff16141515156110ef576040517f08c379a000000000000000000000000000000000000000000000000000000000815260040180806020018281038252603a8152602001807f546865207472616465722077686f20637265617465642074686973207472616e81526020017f73616374696f6e2063616e206e6f742063616c6c20746869732e00000000000081525060400191505060405180910390fd5b6005838154811015156110fe57fe5b906000526020600020906005020160030154821415156111ac576040517f08c379a00000000000000000000000000000000000000000000000000000000081526004018080602001828103825260238152602001807f5468652076616c756520796f7520706179206973206e6f7420696e636f72726581526020017f63742e000000000000000000000000000000000000000000000000000000000081525060400191505060405180910390fd5b60006005848154811015156111bd57fe5b906000526020600020906005020160040160006101000a81548160ff02191690831515021790555060016005848154811015156111f657fe5b906000526020600020906005020160040160016101000a81548160ff021916908315150217905550505050565b600160009054906101000a900473ffffffffffffffffffffffffffffffffffffffff1681565b6001151560058281548110151561125c57fe5b906000526020600020906005020160040160019054906101000a900460ff1615151415156112f2576040517f08c379a00000000000000000000000000000000000000000000000000000000081526004018080602001828103825260158152602001807f476f6f64206973206e6f7420666f722073616c652e000000000000000000000081525060200191505060405180910390fd5b33600360006101000a81548173ffffffffffffffffffffffffffffffffffffffff021916908373ffffffffffffffffffffffffffffffffffffffff160217905550600060058381548110151561134457fe5b906000526020600020906005020160040160006101000a81548160ff021916908315150217905550600160058381548110151561137d57fe5b906000526020600020906005020160040160016101000a81548160ff0219169083151502179055505050565b600260009054906101000a900473ffffffffffffffffffffffffffffffffffffffff1681565b600360009054906101000a900473ffffffffffffffffffffffffffffffffffffffff1681565b6000600580549050905090565b60058181548110151561141157fe5b90600052602060002090600502016000915090508060000160009054906101000a900473ffffffffffffffffffffffffffffffffffffffff1690806001018054600181600116156101000203166002900480601f0160208091040260200160405190810160405280929190818152602001828054600181600116156101000203166002900480156114e35780601f106114b8576101008083540402835291602001916114e3565b820191906000526020600020905b8154815290600101906020018083116114c657829003601f168201915b505050505090806002018054600181600116156101000203166002900480601f0160208091040260200160405190810160405280929190818152602001828054600181600116156101000203166002900480156115815780601f1061155657610100808354040283529160200191611581565b820191906000526020600020905b81548152906001019060200180831161156457829003601f168201915b5050505050908060030154908060040160009054906101000a900460ff16908060040160019054906101000a900460ff16908060040160029054906101000a900460ff16905087565b336000806101000a81548173ffffffffffffffffffffffffffffffffffffffff021916908373ffffffffffffffffffffffffffffffffffffffff160217905550600560e0604051908101604052806000809054906101000a900473ffffffffffffffffffffffffffffffffffffffff1673ffffffffffffffffffffffffffffffffffffffff168152602001858152602001848152602001838152602001600115158152602001600015158152602001600015158152509080600181540180825580915050906001820390600052602060002090600502016000909192909190915060008201518160000160006101000a81548173ffffffffffffffffffffffffffffffffffffffff021916908373ffffffffffffffffffffffffffffffffffffffff160217905550602082015181600101908051906020019061170e92919061179e565b50604082015181600201908051906020019061172b92919061179e565b506060820151816003015560808201518160040160006101000a81548160ff02191690831515021790555060a08201518160040160016101000a81548160ff02191690831515021790555060c08201518160040160026101000a81548160ff021916908315150217905550505050505050565b828054600181600116156101000203166002900490600052602060002090601f016020900481019282601f106117df57805160ff191683800117855561180d565b8280016001018555821561180d579182015b8281111561180c5782518255916020019190600101906117f1565b5b50905061181a919061181e565b5090565b61184091905b8082111561183c576000816000905550600101611824565b5090565b905600a165627a7a723058201947309a8c697a73859864b3868fa8fd152665e5a01ccd4f5848065e9268af1e0029",
  "source": "pragma solidity ^0.4.24;\r\ncontract Secondhand_goods_transaction {\r\n    // the address of the tramsaction's two sides\r\n    address public seller;\r\n    address public buyer;\r\n\r\n    // traders who exchange goods\r\n    address public trader1;\r\n\r\n    address public trader2;\r\n\r\n    uint public value;\r\n\r\n    // the secondhand goods\r\n    struct secondhand_good {\r\n        // bytes32 description;\r\n        address seller;\r\n        string name;\r\n        string description;\r\n        uint value;\r\n        bool for_sale;\r\n        bool selling;\r\n        bool has_sold;\r\n    }\r\n    // the mapping of traders and his secondhand_good\r\n    //mapping(address => secondhand_good) public secondhand_goods;\r\n    secondhand_good[] public secondhand_goods;\r\n\r\n\r\n    constructor() public {\r\n        //trader = msg.sender;\r\n\r\n        // state[msg.sender] = State.INACTIVE;\r\n    }\r\n\r\n    // be sure the trader exists\r\n    modifier isExisted(address addr) {\r\n        address zero = address(0);\r\n        require(\r\n            addr != zero,\r\n            \"The trader does not exist!\"\r\n        );\r\n        _;\r\n    }\r\n\r\n    // the function to start a transaction\r\n    function start_a_transaction(string name, string des, uint val)\r\n    public\r\n        // inState(msg.sender, State.INACTIVE)\r\n    {\r\n        seller = msg.sender;\r\n        //\t\tsecondhand_goods[seller].description = des;\r\n        //\t    secondhand_goods[seller].value = val;\r\n        //        exchangeFlag[msg.sender] = false;\r\n        secondhand_goods.push(secondhand_good({\r\n            seller: seller,\r\n            name: name,\r\n            description: des,\r\n            value: val,\r\n            for_sale: true,\r\n            selling: false,\r\n            has_sold: false\r\n            }));\r\n        // state[seller] = State.CREATED;\r\n    }\r\n\r\n    // function to purchase a secondhand good\r\n    // seller is the seller's address,\r\n    // val is the value the buyer pays\r\n    function purchase(uint index, uint val)\r\n        public\r\n    {\r\n        buyer = msg.sender;\r\n        address seller1 = secondhand_goods[index].seller;\r\n        require(\r\n            secondhand_goods[index].for_sale == true,\r\n            \"Good is not for sale.\"\r\n        );\r\n        require(\r\n            seller1 != buyer,\r\n            \"The trader who created this transaction can not call this.\"\r\n        );\r\n        require(\r\n            val == secondhand_goods[index].value,\r\n            \"The value you pay is not incorrect.\"\r\n        );\r\n\r\n        // lock the transaction to avoid othres to interfere\r\n        // state[seller1] = State.LOCKED;\r\n        secondhand_goods[index].for_sale = false;\r\n        secondhand_goods[index].selling = true;\r\n    }\r\n\r\n    // function for buyer to confirm to receive the good\r\n    function confirmReceivedForPurchasing(uint index)\r\n        public\r\n    {\r\n        secondhand_goods[index].selling = false;\r\n        secondhand_goods[index].has_sold = true;\r\n\r\n        //buyer.transfer(secondhand_goods[addr].value);\r\n        //trader.transfer(this.balance);\r\n    }\r\n\r\n    // function ask for trader to exchange good\r\n    function ask_to_exchange(uint index, uint index1)\r\n        public\r\n        returns (uint, uint)\r\n        // inState(msg.sender, State.CREATED)\r\n    {\r\n        require(\r\n            secondhand_goods[index].for_sale == true,\r\n            \"Good is not for sale.\"\r\n        );\r\n\r\n        secondhand_goods[index1].for_sale = false;\r\n        secondhand_goods[index1].selling = true;\r\n\r\n        trader1 = msg.sender;\r\n        return (index, index1);\r\n        // exchangeFlag[msg.sender] = true;\r\n    }\r\n\r\n    // function answer for trader to exchange good\r\n    function answer_to_exchange(uint index, uint index1)\r\n        public\r\n    {\r\n        require(\r\n            secondhand_goods[index1].selling == true,\r\n            \"Good is not for sale.\"\r\n        );\r\n        trader2 = msg.sender;\r\n        secondhand_goods[index].for_sale = false;\r\n        secondhand_goods[index].selling = true;\r\n        // exchangeFlag[msg.sender] = true;\r\n    }\r\n\r\n    // function to exchange good\r\n    function exchange_goods(uint index, uint index1) public\r\n    {\r\n        // traders can not be the same people\r\n        require(\r\n            trader1 != trader2,\r\n            \"The two sides of transaction can not be the same people.\"\r\n        );\r\n        require(\r\n            secondhand_goods[index].selling == true &&\r\n            secondhand_goods[index1].selling == true,\r\n            \"Trader do not reach an agreement for exchanging.\"\r\n        );\r\n\r\n        secondhand_goods[index].selling = false;\r\n        secondhand_goods[index].has_sold = true;\r\n        secondhand_goods[index1].selling = false;\r\n        secondhand_goods[index1].has_sold = true;\r\n    }\r\n\r\n    function get_goods_list_len()\r\n        public view returns(uint)\r\n    {\r\n        return secondhand_goods.length;\r\n    }\r\n\r\n    function get_good(uint index) public view\r\n        returns (\r\n            address,\r\n            string,\r\n            string,\r\n            uint,\r\n            bool,\r\n            bool,\r\n            bool\r\n        )\r\n    {\r\n        return(\r\n           secondhand_goods[index].seller,\r\n           secondhand_goods[index].name,\r\n           secondhand_goods[index].description,\r\n           secondhand_goods[index].value,\r\n           secondhand_goods[index].for_sale,\r\n           secondhand_goods[index].selling,\r\n           secondhand_goods[index].has_sold\r\n        );\r\n    }\r\n}\r\n",
  "sourcePath": "C:/sync/GZCloud/BlockChain/test/contracts/Secondhand_goods_transaction.sol",
  "compiler": {
    "name": "solc",
    "version": "0.4.24+commit.e67f0147.Emscripten.clang"
  },
  "schemaVersion": "3.0.0",
  "updatedAt": "2018-12-31T05:46:09.723Z",
  "devdoc": {
    "methods": {}
  },
  "userdoc": {
    "methods": {}
  }
}